{
  "contractName": "SimpleVoting",
  "abi": [
    {
      "inputs": [
        {
          "internalType": "address",
          "name": "_tokenAddress",
          "type": "address"
        },
        {
          "internalType": "uint256",
          "name": "_tokenFee",
          "type": "uint256"
        }
      ],
      "stateMutability": "nonpayable",
      "type": "constructor"
    },
    {
      "anonymous": false,
      "inputs": [
        {
          "indexed": true,
          "internalType": "address",
          "name": "voter",
          "type": "address"
        },
        {
          "indexed": false,
          "internalType": "string",
          "name": "candidate",
          "type": "string"
        }
      ],
      "name": "Voted",
      "type": "event"
    },
    {
      "anonymous": false,
      "inputs": [],
      "name": "VotingEnded",
      "type": "event"
    },
    {
      "anonymous": false,
      "inputs": [],
      "name": "VotingStarted",
      "type": "event"
    },
    {
      "inputs": [
        {
          "internalType": "uint256",
          "name": "",
          "type": "uint256"
        }
      ],
      "name": "candidates",
      "outputs": [
        {
          "internalType": "string",
          "name": "name",
          "type": "string"
        },
        {
          "internalType": "uint256",
          "name": "voteCount",
          "type": "uint256"
        }
      ],
      "stateMutability": "view",
      "type": "function"
    },
    {
      "inputs": [],
      "name": "owner",
      "outputs": [
        {
          "internalType": "address",
          "name": "",
          "type": "address"
        }
      ],
      "stateMutability": "view",
      "type": "function"
    },
    {
      "inputs": [],
      "name": "tokenFee",
      "outputs": [
        {
          "internalType": "uint256",
          "name": "",
          "type": "uint256"
        }
      ],
      "stateMutability": "view",
      "type": "function"
    },
    {
      "inputs": [
        {
          "internalType": "address",
          "name": "",
          "type": "address"
        }
      ],
      "name": "voters",
      "outputs": [
        {
          "internalType": "bool",
          "name": "hasVoted",
          "type": "bool"
        },
        {
          "internalType": "string",
          "name": "votedFor",
          "type": "string"
        }
      ],
      "stateMutability": "view",
      "type": "function"
    },
    {
      "inputs": [],
      "name": "votingActive",
      "outputs": [
        {
          "internalType": "bool",
          "name": "",
          "type": "bool"
        }
      ],
      "stateMutability": "view",
      "type": "function"
    },
    {
      "inputs": [],
      "name": "votingToken",
      "outputs": [
        {
          "internalType": "contract VotingToken",
          "name": "",
          "type": "address"
        }
      ],
      "stateMutability": "view",
      "type": "function"
    },
    {
      "inputs": [
        {
          "internalType": "string",
          "name": "_name",
          "type": "string"
        }
      ],
      "name": "addCandidate",
      "outputs": [],
      "stateMutability": "nonpayable",
      "type": "function"
    },
    {
      "inputs": [],
      "name": "startVoting",
      "outputs": [],
      "stateMutability": "nonpayable",
      "type": "function"
    },
    {
      "inputs": [
        {
          "internalType": "string",
          "name": "_candidateName",
          "type": "string"
        }
      ],
      "name": "vote",
      "outputs": [],
      "stateMutability": "nonpayable",
      "type": "function"
    },
    {
      "inputs": [],
      "name": "endVoting",
      "outputs": [],
      "stateMutability": "nonpayable",
      "type": "function"
    },
    {
      "inputs": [],
      "name": "getWinner",
      "outputs": [
        {
          "internalType": "string",
          "name": "",
          "type": "string"
        }
      ],
      "stateMutability": "view",
      "type": "function"
    },
    {
      "inputs": [
        {
          "internalType": "address",
          "name": "to",
          "type": "address"
        }
      ],
      "name": "withdrawTokens",
      "outputs": [],
      "stateMutability": "nonpayable",
      "type": "function"
    }
  ],
  "bytecode": "0x608060405234801562000010575f80fd5b5060405162001ef038038062001ef08339818101604052810190620000369190620001d2565b5f73ffffffffffffffffffffffffffffffffffffffff168273ffffffffffffffffffffffffffffffffffffffff1603620000a7576040517f08c379a00000000000000000000000000000000000000000000000000000000081526004016200009e9062000275565b60405180910390fd5b335f806101000a81548173ffffffffffffffffffffffffffffffffffffffff021916908373ffffffffffffffffffffffffffffffffffffffff1602179055508160045f6101000a81548173ffffffffffffffffffffffffffffffffffffffff021916908373ffffffffffffffffffffffffffffffffffffffff16021790555080600181905550505062000295565b5f80fd5b5f73ffffffffffffffffffffffffffffffffffffffff82169050919050565b5f620001648262000139565b9050919050565b620001768162000158565b811462000181575f80fd5b50565b5f8151905062000194816200016b565b92915050565b5f819050919050565b620001ae816200019a565b8114620001b9575f80fd5b50565b5f81519050620001cc81620001a3565b92915050565b5f8060408385031215620001eb57620001ea62000135565b5b5f620001fa8582860162000184565b92505060206200020d85828601620001bc565b9150509250929050565b5f82825260208201905092915050565b7f496e76616c696420746f6b656e206164647265737300000000000000000000005f82015250565b5f6200025d60158362000217565b91506200026a8262000227565b602082019050919050565b5f6020820190508181035f8301526200028e816200024f565b9050919050565b611c4d80620002a35f395ff3fe608060405234801561000f575f80fd5b50600436106100b2575f3560e01c80638da5cb5b1161006f5780638da5cb5b146101655780638e7ea5b214610183578063a3ec138d146101a1578063b0340123146101d2578063c3403ddf146101f0578063fc36e15b146101fa576100b2565b80631ec6b60a146100b65780633477ee2e146100c0578063408e2727146100f1578063455991361461010f578063462e91ec1461012d57806349df728c14610149575b5f80fd5b6100be610216565b005b6100da60048036038101906100d59190610ef2565b61033a565b6040516100e8929190610fb6565b60405180910390f35b6100f96103ef565b6040516101069190610ffe565b60405180910390f35b610117610401565b6040516101249190611017565b60405180910390f35b6101476004803603810190610142919061115c565b610407565b005b610163600480360381019061015e91906111fd565b610543565b005b61016d61074b565b60405161017a9190611237565b60405180910390f35b61018b61076e565b6040516101989190611250565b60405180910390f35b6101bb60048036038101906101b691906111fd565b61095a565b6040516101c9929190611270565b60405180910390f35b6101da610a0c565b6040516101e791906112f9565b60405180910390f35b6101f8610a31565b005b610214600480360381019061020f919061115c565b610b53565b005b5f8054906101000a900473ffffffffffffffffffffffffffffffffffffffff1673ffffffffffffffffffffffffffffffffffffffff163373ffffffffffffffffffffffffffffffffffffffff16146102a3576040517f08c379a000000000000000000000000000000000000000000000000000000000815260040161029a90611382565b60405180910390fd5b5f60149054906101000a900460ff16156102f2576040517f08c379a00000000000000000000000000000000000000000000000000000000081526004016102e9906113ea565b60405180910390fd5b60015f60146101000a81548160ff0219169083151502179055507f877e2548498f42b7975a186b94ef1d32c86d420b7b806dd2be2bea293b89590460405160405180910390a1565b60028181548110610349575f80fd5b905f5260205f2090600202015f91509050805f01805461036890611435565b80601f016020809104026020016040519081016040528092919081815260200182805461039490611435565b80156103df5780601f106103b6576101008083540402835291602001916103df565b820191905f5260205f20905b8154815290600101906020018083116103c257829003601f168201915b5050505050908060010154905082565b5f60149054906101000a900460ff1681565b60015481565b5f8054906101000a900473ffffffffffffffffffffffffffffffffffffffff1673ffffffffffffffffffffffffffffffffffffffff163373ffffffffffffffffffffffffffffffffffffffff1614610494576040517f08c379a000000000000000000000000000000000000000000000000000000000815260040161048b90611382565b60405180910390fd5b5f60149054906101000a900460ff16156104e3576040517f08c379a00000000000000000000000000000000000000000000000000000000081526004016104da906113ea565b60405180910390fd5b600260405180604001604052808381526020015f815250908060018154018082558091505060019003905f5260205f2090600202015f909190919091505f820151815f01908161053391906115f9565b5060208201518160010155505050565b5f8054906101000a900473ffffffffffffffffffffffffffffffffffffffff1673ffffffffffffffffffffffffffffffffffffffff163373ffffffffffffffffffffffffffffffffffffffff16146105d0576040517f08c379a00000000000000000000000000000000000000000000000000000000081526004016105c790611382565b60405180910390fd5b5f60045f9054906101000a900473ffffffffffffffffffffffffffffffffffffffff1673ffffffffffffffffffffffffffffffffffffffff166370a08231306040518263ffffffff1660e01b815260040161062b9190611237565b602060405180830381865afa158015610646573d5f803e3d5ffd5b505050506040513d601f19601f8201168201806040525081019061066a91906116dc565b905060045f9054906101000a900473ffffffffffffffffffffffffffffffffffffffff1673ffffffffffffffffffffffffffffffffffffffff1663a9059cbb83836040518363ffffffff1660e01b81526004016106c8929190611707565b6020604051808303815f875af11580156106e4573d5f803e3d5ffd5b505050506040513d601f19601f820116820180604052508101906107089190611758565b610747576040517f08c379a000000000000000000000000000000000000000000000000000000000815260040161073e906117cd565b60405180910390fd5b5050565b5f8054906101000a900473ffffffffffffffffffffffffffffffffffffffff1681565b60605f60149054906101000a900460ff16156107bf576040517f08c379a00000000000000000000000000000000000000000000000000000000081526004016107b690611835565b60405180910390fd5b5f60028054905011610806576040517f08c379a00000000000000000000000000000000000000000000000000000000081526004016107fd9061189d565b60405180910390fd5b5f60025f8154811061081b5761081a6118bb565b5b905f5260205f2090600202016001015490505f80600190505b6002805490508110156108a9578260028281548110610856576108556118bb565b5b905f5260205f20906002020160010154111561089657600281815481106108805761087f6118bb565b5b905f5260205f2090600202016001015492508091505b80806108a190611915565b915050610834565b50600281815481106108be576108bd6118bb565b5b905f5260205f2090600202015f0180546108d790611435565b80601f016020809104026020016040519081016040528092919081815260200182805461090390611435565b801561094e5780601f106109255761010080835404028352916020019161094e565b820191905f5260205f20905b81548152906001019060200180831161093157829003601f168201915b50505050509250505090565b6003602052805f5260405f205f91509050805f015f9054906101000a900460ff169080600101805461098b90611435565b80601f01602080910402602001604051908101604052809291908181526020018280546109b790611435565b8015610a025780601f106109d957610100808354040283529160200191610a02565b820191905f5260205f20905b8154815290600101906020018083116109e557829003601f168201915b5050505050905082565b60045f9054906101000a900473ffffffffffffffffffffffffffffffffffffffff1681565b5f8054906101000a900473ffffffffffffffffffffffffffffffffffffffff1673ffffffffffffffffffffffffffffffffffffffff163373ffffffffffffffffffffffffffffffffffffffff1614610abe576040517f08c379a0000000000000000000000000000000000000000000000000000000008152600401610ab590611382565b60405180910390fd5b5f60149054906101000a900460ff16610b0c576040517f08c379a0000000000000000000000000000000000000000000000000000000008152600401610b03906119a6565b60405180910390fd5b5f8060146101000a81548160ff0219169083151502179055507f7a19ed057db79e3c2fa0b97a54b43bef4fce74b31bb6c01af514b9a18a7f70ab60405160405180910390a1565b5f60149054906101000a900460ff16610ba1576040517f08c379a0000000000000000000000000000000000000000000000000000000008152600401610b98906119a6565b60405180910390fd5b5f60035f3373ffffffffffffffffffffffffffffffffffffffff1673ffffffffffffffffffffffffffffffffffffffff1681526020019081526020015f209050805f015f9054906101000a900460ff1615610c31576040517f08c379a0000000000000000000000000000000000000000000000000000000008152600401610c2890611a0e565b60405180910390fd5b60045f9054906101000a900473ffffffffffffffffffffffffffffffffffffffff1673ffffffffffffffffffffffffffffffffffffffff166323b872dd33306001546040518463ffffffff1660e01b8152600401610c9193929190611a2c565b6020604051808303815f875af1158015610cad573d5f803e3d5ffd5b505050506040513d601f19601f82011682018060405250810190610cd19190611758565b610d10576040517f08c379a0000000000000000000000000000000000000000000000000000000008152600401610d0790611aab565b60405180910390fd5b5f82604051602001610d229190611b03565b6040516020818303038152906040528051906020012090505f805b600280549050811015610dec578260028281548110610d5f57610d5e6118bb565b5b905f5260205f2090600202015f01604051602001610d7d9190611b99565b6040516020818303038152906040528051906020012003610dd95760028181548110610dac57610dab6118bb565b5b905f5260205f2090600202016001015f815480929190610dcb90611915565b919050555060019150610dec565b8080610de490611915565b915050610d3d565b5080610e2d576040517f08c379a0000000000000000000000000000000000000000000000000000000008152600401610e2490611bf9565b60405180910390fd5b6001835f015f6101000a81548160ff02191690831515021790555083836001019081610e5991906115f9565b503373ffffffffffffffffffffffffffffffffffffffff167fcb6783276e8a4347387036bbfea000268f0a4b1f8c46ac79980609f2af8d2acd85604051610ea09190611250565b60405180910390a250505050565b5f604051905090565b5f80fd5b5f80fd5b5f819050919050565b610ed181610ebf565b8114610edb575f80fd5b50565b5f81359050610eec81610ec8565b92915050565b5f60208284031215610f0757610f06610eb7565b5b5f610f1484828501610ede565b91505092915050565b5f81519050919050565b5f82825260208201905092915050565b5f5b83811015610f54578082015181840152602081019050610f39565b5f8484015250505050565b5f601f19601f8301169050919050565b5f610f7982610f1d565b610f838185610f27565b9350610f93818560208601610f37565b610f9c81610f5f565b840191505092915050565b610fb081610ebf565b82525050565b5f6040820190508181035f830152610fce8185610f6f565b9050610fdd6020830184610fa7565b9392505050565b5f8115159050919050565b610ff881610fe4565b82525050565b5f6020820190506110115f830184610fef565b92915050565b5f60208201905061102a5f830184610fa7565b92915050565b5f80fd5b5f80fd5b7f4e487b71000000000000000000000000000000000000000000000000000000005f52604160045260245ffd5b61106e82610f5f565b810181811067ffffffffffffffff8211171561108d5761108c611038565b5b80604052505050565b5f61109f610eae565b90506110ab8282611065565b919050565b5f67ffffffffffffffff8211156110ca576110c9611038565b5b6110d382610f5f565b9050602081019050919050565b828183375f83830152505050565b5f6111006110fb846110b0565b611096565b90508281526020810184848401111561111c5761111b611034565b5b6111278482856110e0565b509392505050565b5f82601f83011261114357611142611030565b5b81356111538482602086016110ee565b91505092915050565b5f6020828403121561117157611170610eb7565b5b5f82013567ffffffffffffffff81111561118e5761118d610ebb565b5b61119a8482850161112f565b91505092915050565b5f73ffffffffffffffffffffffffffffffffffffffff82169050919050565b5f6111cc826111a3565b9050919050565b6111dc816111c2565b81146111e6575f80fd5b50565b5f813590506111f7816111d3565b92915050565b5f6020828403121561121257611211610eb7565b5b5f61121f848285016111e9565b91505092915050565b611231816111c2565b82525050565b5f60208201905061124a5f830184611228565b92915050565b5f6020820190508181035f8301526112688184610f6f565b905092915050565b5f6040820190506112835f830185610fef565b81810360208301526112958184610f6f565b90509392505050565b5f819050919050565b5f6112c16112bc6112b7846111a3565b61129e565b6111a3565b9050919050565b5f6112d2826112a7565b9050919050565b5f6112e3826112c8565b9050919050565b6112f3816112d9565b82525050565b5f60208201905061130c5f8301846112ea565b92915050565b7f4f6e6c79206f776e65722063616e2063616c6c20746869732066756e6374696f5f8201527f6e00000000000000000000000000000000000000000000000000000000000000602082015250565b5f61136c602183610f27565b915061137782611312565b604082019050919050565b5f6020820190508181035f83015261139981611360565b9050919050565b7f566f74696e6720697320616374697665000000000000000000000000000000005f82015250565b5f6113d4601083610f27565b91506113df826113a0565b602082019050919050565b5f6020820190508181035f830152611401816113c8565b9050919050565b7f4e487b71000000000000000000000000000000000000000000000000000000005f52602260045260245ffd5b5f600282049050600182168061144c57607f821691505b60208210810361145f5761145e611408565b5b50919050565b5f819050815f5260205f209050919050565b5f6020601f8301049050919050565b5f82821b905092915050565b5f600883026114c17fffffffffffffffffffffffffffffffffffffffffffffffffffffffffffffffff82611486565b6114cb8683611486565b95508019841693508086168417925050509392505050565b5f6114fd6114f86114f384610ebf565b61129e565b610ebf565b9050919050565b5f819050919050565b611516836114e3565b61152a61152282611504565b848454611492565b825550505050565b5f90565b61153e611532565b61154981848461150d565b505050565b5b8181101561156c576115615f82611536565b60018101905061154f565b5050565b601f8211156115b15761158281611465565b61158b84611477565b8101602085101561159a578190505b6115ae6115a685611477565b83018261154e565b50505b505050565b5f82821c905092915050565b5f6115d15f19846008026115b6565b1980831691505092915050565b5f6115e983836115c2565b9150826002028217905092915050565b61160282610f1d565b67ffffffffffffffff81111561161b5761161a611038565b5b6116258254611435565b611630828285611570565b5f60209050601f831160018114611661575f841561164f578287015190505b61165985826115de565b8655506116c0565b601f19841661166f86611465565b5f5b8281101561169657848901518255600182019150602085019450602081019050611671565b868310156116b357848901516116af601f8916826115c2565b8355505b6001600288020188555050505b505050505050565b5f815190506116d681610ec8565b92915050565b5f602082840312156116f1576116f0610eb7565b5b5f6116fe848285016116c8565b91505092915050565b5f60408201905061171a5f830185611228565b6117276020830184610fa7565b9392505050565b61173781610fe4565b8114611741575f80fd5b50565b5f815190506117528161172e565b92915050565b5f6020828403121561176d5761176c610eb7565b5b5f61177a84828501611744565b91505092915050565b7f5769746864726177206661696c656400000000000000000000000000000000005f82015250565b5f6117b7600f83610f27565b91506117c282611783565b602082019050919050565b5f6020820190508181035f8301526117e4816117ab565b9050919050565b7f566f74696e67206973207374696c6c20616374697665000000000000000000005f82015250565b5f61181f601683610f27565b915061182a826117eb565b602082019050919050565b5f6020820190508181035f83015261184c81611813565b9050919050565b7f4e6f2063616e64696461746573000000000000000000000000000000000000005f82015250565b5f611887600d83610f27565b915061189282611853565b602082019050919050565b5f6020820190508181035f8301526118b48161187b565b9050919050565b7f4e487b71000000000000000000000000000000000000000000000000000000005f52603260045260245ffd5b7f4e487b71000000000000000000000000000000000000000000000000000000005f52601160045260245ffd5b5f61191f82610ebf565b91507fffffffffffffffffffffffffffffffffffffffffffffffffffffffffffffffff8203611951576119506118e8565b5b600182019050919050565b7f566f74696e67206973206e6f74206163746976650000000000000000000000005f82015250565b5f611990601483610f27565b915061199b8261195c565b602082019050919050565b5f6020820190508181035f8301526119bd81611984565b9050919050565b7f416c726561647920766f746564000000000000000000000000000000000000005f82015250565b5f6119f8600d83610f27565b9150611a03826119c4565b602082019050919050565b5f6020820190508181035f830152611a25816119ec565b9050919050565b5f606082019050611a3f5f830186611228565b611a4c6020830185611228565b611a596040830184610fa7565b949350505050565b7f546f6b656e207472616e73666572206661696c656400000000000000000000005f82015250565b5f611a95601583610f27565b9150611aa082611a61565b602082019050919050565b5f6020820190508181035f830152611ac281611a89565b9050919050565b5f81905092915050565b5f611add82610f1d565b611ae78185611ac9565b9350611af7818560208601610f37565b80840191505092915050565b5f611b0e8284611ad3565b915081905092915050565b5f8154611b2581611435565b611b2f8186611ac9565b9450600182165f8114611b495760018114611b5e57611b90565b60ff1983168652811515820286019350611b90565b611b6785611465565b5f5b83811015611b8857815481890152600182019150602081019050611b69565b838801955050505b50505092915050565b5f611ba48284611b19565b915081905092915050565b7f43616e64696461746520646f6573206e6f7420657869737400000000000000005f82015250565b5f611be3601883610f27565b9150611bee82611baf565b602082019050919050565b5f6020820190508181035f830152611c1081611bd7565b905091905056fea2646970667358221220539dc88ab573649e67b3eea49322bc32f3010c9589647937839c83fbb44eed9e64736f6c63430008140033",
  "immutableReferences": {},
  "source": "// SPDX-License-Identifier: MIT\r\npragma solidity ^0.8.0;\r\n\r\nimport \"./VotingToken.sol\"; // Adjust import path if needed\r\n\r\ncontract SimpleVoting {\r\n    struct Candidate {\r\n        string name;\r\n        uint voteCount;\r\n    }\r\n\r\n    struct Voter {\r\n        bool hasVoted;\r\n        string votedFor;\r\n    }\r\n\r\n    address public owner;\r\n    bool public votingActive;\r\n    uint public tokenFee;\r\n\r\n    Candidate[] public candidates;\r\n    mapping(address => Voter) public voters;\r\n\r\n    VotingToken public votingToken;\r\n\r\n    // Events\r\n    event Voted(address indexed voter, string candidate);\r\n    event VotingStarted();\r\n    event VotingEnded();\r\n\r\n    // Modifiers\r\n    modifier onlyOwner() {\r\n        require(msg.sender == owner, \"Only owner can call this function\");\r\n        _;\r\n    }\r\n\r\n    modifier whenVotingActive() {\r\n        require(votingActive, \"Voting is not active\");\r\n        _;\r\n    }\r\n\r\n    modifier whenVotingInactive() {\r\n        require(!votingActive, \"Voting is active\");\r\n        _;\r\n    }\r\n\r\n    /// @notice Constructor to initialize contract with token address and vote fee\r\n    constructor(address _tokenAddress, uint _tokenFee) {\r\n        require(_tokenAddress != address(0), \"Invalid token address\");\r\n        owner = msg.sender;\r\n        votingToken = VotingToken(_tokenAddress);\r\n        tokenFee = _tokenFee;\r\n    }\r\n\r\n    function addCandidate(string memory _name) public onlyOwner whenVotingInactive {\r\n        candidates.push(Candidate({ name: _name, voteCount: 0 }));\r\n    }\r\n\r\n    function startVoting() public onlyOwner whenVotingInactive {\r\n        votingActive = true;\r\n        emit VotingStarted();\r\n    }\r\n\r\n    function vote(string memory _candidateName) public whenVotingActive {\r\n        Voter storage voter = voters[msg.sender];\r\n        require(!voter.hasVoted, \"Already voted\");\r\n\r\n        // Collect token fee\r\n        require(\r\n            votingToken.transferFrom(msg.sender, address(this), tokenFee),\r\n            \"Token transfer failed\"\r\n        );\r\n\r\n        bytes32 targetHash = keccak256(abi.encodePacked(_candidateName));\r\n        bool found = false;\r\n\r\n        for (uint i = 0; i < candidates.length; i++) {\r\n            if (keccak256(abi.encodePacked(candidates[i].name)) == targetHash) {\r\n                candidates[i].voteCount++;\r\n                found = true;\r\n                break;\r\n            }\r\n        }\r\n\r\n        require(found, \"Candidate does not exist\");\r\n\r\n        voter.hasVoted = true;\r\n        voter.votedFor = _candidateName;\r\n\r\n        emit Voted(msg.sender, _candidateName);\r\n    }\r\n\r\n    function endVoting() public onlyOwner whenVotingActive {\r\n        votingActive = false;\r\n        emit VotingEnded();\r\n    }\r\n\r\n    function getWinner() public view returns (string memory) {\r\n        require(!votingActive, \"Voting is still active\");\r\n        require(candidates.length > 0, \"No candidates\");\r\n\r\n        uint winningVoteCount = candidates[0].voteCount;\r\n        uint winningIndex = 0;\r\n\r\n        for (uint i = 1; i < candidates.length; i++) {\r\n            if (candidates[i].voteCount > winningVoteCount) {\r\n                winningVoteCount = candidates[i].voteCount;\r\n                winningIndex = i;\r\n            }\r\n        }\r\n\r\n        return candidates[winningIndex].name;\r\n    }\r\n\r\n    /// @notice Withdraw collected token fees to owner\r\n    function withdrawTokens(address to) external onlyOwner {\r\n        uint balance = votingToken.balanceOf(address(this));\r\n        require(votingToken.transfer(to, balance), \"Withdraw failed\");\r\n    }\r\n}\r\n",
  "sourcePath": "C:\\Users\\NICHLOUQ\\New_project\\contracts\\VotingContract.sol",
  "compiler": {
    "name": "solc",
    "version": "0.8.20+commit.a1b79de6.Emscripten.clang"
  },
  "schemaVersion": "3.4.16",
  "updatedAt": "2025-04-23T15:15:16.960Z",
  "devdoc": {
    "kind": "dev",
    "methods": {},
    "version": 1
  },
  "userdoc": {
    "kind": "user",
    "methods": {
      "constructor": {
        "notice": "Constructor to initialize contract with token address and vote fee"
      },
      "withdrawTokens(address)": {
        "notice": "Withdraw collected token fees to owner"
      }
    },
    "version": 1
  }
}