{
  "contractName": "VoteToken",
  "abi": [
    {
      "inputs": [
        {
          "internalType": "string",
          "name": "name",
          "type": "string"
        },
        {
          "internalType": "string",
          "name": "symbol",
          "type": "string"
        }
      ],
      "stateMutability": "nonpayable",
      "type": "constructor"
    },
    {
      "inputs": [
        {
          "internalType": "address",
          "name": "spender",
          "type": "address"
        },
        {
          "internalType": "uint256",
          "name": "allowance",
          "type": "uint256"
        },
        {
          "internalType": "uint256",
          "name": "needed",
          "type": "uint256"
        }
      ],
      "name": "ERC20InsufficientAllowance",
      "type": "error"
    },
    {
      "inputs": [
        {
          "internalType": "address",
          "name": "sender",
          "type": "address"
        },
        {
          "internalType": "uint256",
          "name": "balance",
          "type": "uint256"
        },
        {
          "internalType": "uint256",
          "name": "needed",
          "type": "uint256"
        }
      ],
      "name": "ERC20InsufficientBalance",
      "type": "error"
    },
    {
      "inputs": [
        {
          "internalType": "address",
          "name": "approver",
          "type": "address"
        }
      ],
      "name": "ERC20InvalidApprover",
      "type": "error"
    },
    {
      "inputs": [
        {
          "internalType": "address",
          "name": "receiver",
          "type": "address"
        }
      ],
      "name": "ERC20InvalidReceiver",
      "type": "error"
    },
    {
      "inputs": [
        {
          "internalType": "address",
          "name": "sender",
          "type": "address"
        }
      ],
      "name": "ERC20InvalidSender",
      "type": "error"
    },
    {
      "inputs": [
        {
          "internalType": "address",
          "name": "spender",
          "type": "address"
        }
      ],
      "name": "ERC20InvalidSpender",
      "type": "error"
    },
    {
      "inputs": [
        {
          "internalType": "address",
          "name": "owner",
          "type": "address"
        }
      ],
      "name": "OwnableInvalidOwner",
      "type": "error"
    },
    {
      "inputs": [
        {
          "internalType": "address",
          "name": "account",
          "type": "address"
        }
      ],
      "name": "OwnableUnauthorizedAccount",
      "type": "error"
    },
    {
      "anonymous": false,
      "inputs": [
        {
          "indexed": true,
          "internalType": "address",
          "name": "owner",
          "type": "address"
        },
        {
          "indexed": true,
          "internalType": "address",
          "name": "spender",
          "type": "address"
        },
        {
          "indexed": false,
          "internalType": "uint256",
          "name": "value",
          "type": "uint256"
        }
      ],
      "name": "Approval",
      "type": "event"
    },
    {
      "anonymous": false,
      "inputs": [
        {
          "indexed": true,
          "internalType": "address",
          "name": "previousOwner",
          "type": "address"
        },
        {
          "indexed": true,
          "internalType": "address",
          "name": "newOwner",
          "type": "address"
        }
      ],
      "name": "OwnershipTransferred",
      "type": "event"
    },
    {
      "anonymous": false,
      "inputs": [
        {
          "indexed": true,
          "internalType": "address",
          "name": "from",
          "type": "address"
        },
        {
          "indexed": true,
          "internalType": "address",
          "name": "to",
          "type": "address"
        },
        {
          "indexed": false,
          "internalType": "uint256",
          "name": "value",
          "type": "uint256"
        }
      ],
      "name": "Transfer",
      "type": "event"
    },
    {
      "inputs": [
        {
          "internalType": "address",
          "name": "owner",
          "type": "address"
        },
        {
          "internalType": "address",
          "name": "spender",
          "type": "address"
        }
      ],
      "name": "allowance",
      "outputs": [
        {
          "internalType": "uint256",
          "name": "",
          "type": "uint256"
        }
      ],
      "stateMutability": "view",
      "type": "function"
    },
    {
      "inputs": [
        {
          "internalType": "address",
          "name": "spender",
          "type": "address"
        },
        {
          "internalType": "uint256",
          "name": "value",
          "type": "uint256"
        }
      ],
      "name": "approve",
      "outputs": [
        {
          "internalType": "bool",
          "name": "",
          "type": "bool"
        }
      ],
      "stateMutability": "nonpayable",
      "type": "function"
    },
    {
      "inputs": [
        {
          "internalType": "address",
          "name": "account",
          "type": "address"
        }
      ],
      "name": "balanceOf",
      "outputs": [
        {
          "internalType": "uint256",
          "name": "",
          "type": "uint256"
        }
      ],
      "stateMutability": "view",
      "type": "function"
    },
    {
      "inputs": [],
      "name": "decimals",
      "outputs": [
        {
          "internalType": "uint8",
          "name": "",
          "type": "uint8"
        }
      ],
      "stateMutability": "view",
      "type": "function"
    },
    {
      "inputs": [],
      "name": "name",
      "outputs": [
        {
          "internalType": "string",
          "name": "",
          "type": "string"
        }
      ],
      "stateMutability": "view",
      "type": "function"
    },
    {
      "inputs": [],
      "name": "owner",
      "outputs": [
        {
          "internalType": "address",
          "name": "",
          "type": "address"
        }
      ],
      "stateMutability": "view",
      "type": "function"
    },
    {
      "inputs": [],
      "name": "renounceOwnership",
      "outputs": [],
      "stateMutability": "nonpayable",
      "type": "function"
    },
    {
      "inputs": [],
      "name": "symbol",
      "outputs": [
        {
          "internalType": "string",
          "name": "",
          "type": "string"
        }
      ],
      "stateMutability": "view",
      "type": "function"
    },
    {
      "inputs": [],
      "name": "totalSupply",
      "outputs": [
        {
          "internalType": "uint256",
          "name": "",
          "type": "uint256"
        }
      ],
      "stateMutability": "view",
      "type": "function"
    },
    {
      "inputs": [
        {
          "internalType": "address",
          "name": "to",
          "type": "address"
        },
        {
          "internalType": "uint256",
          "name": "value",
          "type": "uint256"
        }
      ],
      "name": "transfer",
      "outputs": [
        {
          "internalType": "bool",
          "name": "",
          "type": "bool"
        }
      ],
      "stateMutability": "nonpayable",
      "type": "function"
    },
    {
      "inputs": [
        {
          "internalType": "address",
          "name": "from",
          "type": "address"
        },
        {
          "internalType": "address",
          "name": "to",
          "type": "address"
        },
        {
          "internalType": "uint256",
          "name": "value",
          "type": "uint256"
        }
      ],
      "name": "transferFrom",
      "outputs": [
        {
          "internalType": "bool",
          "name": "",
          "type": "bool"
        }
      ],
      "stateMutability": "nonpayable",
      "type": "function"
    },
    {
      "inputs": [
        {
          "internalType": "address",
          "name": "newOwner",
          "type": "address"
        }
      ],
      "name": "transferOwnership",
      "outputs": [],
      "stateMutability": "nonpayable",
      "type": "function"
    }
  ],
  "bytecode": "0x608060405234801562000010575f80fd5b5060405162000b8f38038062000b8f8339810160408190526200003391620001a7565b338282600362000044838262000299565b50600462000053828262000299565b5050506001600160a01b0381166200008457604051631e4fbdf760e01b81525f600482015260240160405180910390fd5b6200008f8162000098565b50505062000361565b600580546001600160a01b038381166001600160a01b0319831681179093556040519116919082907f8be0079c531659141344cd1fd0a4f28419497f9722a3daafe3b4186f6b6457e0905f90a35050565b634e487b7160e01b5f52604160045260245ffd5b5f82601f8301126200010d575f80fd5b81516001600160401b03808211156200012a576200012a620000e9565b604051601f8301601f19908116603f01168101908282118183101715620001555762000155620000e9565b8160405283815260209250868385880101111562000171575f80fd5b5f91505b8382101562000194578582018301518183018401529082019062000175565b5f93810190920192909252949350505050565b5f8060408385031215620001b9575f80fd5b82516001600160401b0380821115620001d0575f80fd5b620001de86838701620000fd565b93506020850151915080821115620001f4575f80fd5b506200020385828601620000fd565b9150509250929050565b600181811c908216806200022257607f821691505b6020821081036200024157634e487b7160e01b5f52602260045260245ffd5b50919050565b601f82111562000294575f81815260208120601f850160051c810160208610156200026f5750805b601f850160051c820191505b8181101562000290578281556001016200027b565b5050505b505050565b81516001600160401b03811115620002b557620002b5620000e9565b620002cd81620002c684546200020d565b8462000247565b602080601f83116001811462000303575f8415620002eb5750858301515b5f19600386901b1c1916600185901b17855562000290565b5f85815260208120601f198616915b82811015620003335788860151825594840194600190910190840162000312565b50858210156200035157878501515f19600388901b60f8161c191681555b5050505050600190811b01905550565b610820806200036f5f395ff3fe608060405234801561000f575f80fd5b50600436106100b1575f3560e01c8063715018a61161006e578063715018a6146101525780638da5cb5b1461015c57806395d89b4114610177578063a9059cbb1461017f578063dd62ed3e14610192578063f2fde38b146101ca575f80fd5b806306fdde03146100b5578063095ea7b3146100d357806318160ddd146100f657806323b872dd14610108578063313ce5671461011b57806370a082311461012a575b5f80fd5b6100bd6101dd565b6040516100ca919061067b565b60405180910390f35b6100e66100e13660046106e1565b61026d565b60405190151581526020016100ca565b6002545b6040519081526020016100ca565b6100e6610116366004610709565b610286565b604051601281526020016100ca565b6100fa610138366004610742565b6001600160a01b03165f9081526020819052604090205490565b61015a6102a9565b005b6005546040516001600160a01b0390911681526020016100ca565b6100bd6102bc565b6100e661018d3660046106e1565b6102cb565b6100fa6101a0366004610762565b6001600160a01b039182165f90815260016020908152604080832093909416825291909152205490565b61015a6101d8366004610742565b6102d8565b6060600380546101ec90610793565b80601f016020809104026020016040519081016040528092919081815260200182805461021890610793565b80156102635780601f1061023a57610100808354040283529160200191610263565b820191905f5260205f20905b81548152906001019060200180831161024657829003601f168201915b5050505050905090565b5f3361027a81858561031a565b60019150505b92915050565b5f3361029385828561032c565b61029e8585856103a8565b506001949350505050565b6102b1610405565b6102ba5f610432565b565b6060600480546101ec90610793565b5f3361027a8185856103a8565b6102e0610405565b6001600160a01b03811661030e57604051631e4fbdf760e01b81525f60048201526024015b60405180910390fd5b61031781610432565b50565b6103278383836001610483565b505050565b6001600160a01b038381165f908152600160209081526040808320938616835292905220545f198110156103a2578181101561039457604051637dc7a0d960e11b81526001600160a01b03841660048201526024810182905260448101839052606401610305565b6103a284848484035f610483565b50505050565b6001600160a01b0383166103d157604051634b637e8f60e11b81525f6004820152602401610305565b6001600160a01b0382166103fa5760405163ec442f0560e01b81525f6004820152602401610305565b610327838383610555565b6005546001600160a01b031633146102ba5760405163118cdaa760e01b8152336004820152602401610305565b600580546001600160a01b038381166001600160a01b0319831681179093556040519116919082907f8be0079c531659141344cd1fd0a4f28419497f9722a3daafe3b4186f6b6457e0905f90a35050565b6001600160a01b0384166104ac5760405163e602df0560e01b81525f6004820152602401610305565b6001600160a01b0383166104d557604051634a1406b160e11b81525f6004820152602401610305565b6001600160a01b038085165f90815260016020908152604080832093871683529290522082905580156103a257826001600160a01b0316846001600160a01b03167f8c5be1e5ebec7d5bd14f71427d1e84f3dd0314c0f7b2291e5b200ac8c7c3b9258460405161054791815260200190565b60405180910390a350505050565b6001600160a01b03831661057f578060025f82825461057491906107cb565b909155506105ef9050565b6001600160a01b0383165f90815260208190526040902054818110156105d15760405163391434e360e21b81526001600160a01b03851660048201526024810182905260448101839052606401610305565b6001600160a01b0384165f9081526020819052604090209082900390555b6001600160a01b03821661060b57600280548290039055610629565b6001600160a01b0382165f9081526020819052604090208054820190555b816001600160a01b0316836001600160a01b03167fddf252ad1be2c89b69c2b068fc378daa952ba7f163c4a11628f55a4df523b3ef8360405161066e91815260200190565b60405180910390a3505050565b5f6020808352835180828501525f5b818110156106a65785810183015185820160400152820161068a565b505f604082860101526040601f19601f8301168501019250505092915050565b80356001600160a01b03811681146106dc575f80fd5b919050565b5f80604083850312156106f2575f80fd5b6106fb836106c6565b946020939093013593505050565b5f805f6060848603121561071b575f80fd5b610724846106c6565b9250610732602085016106c6565b9150604084013590509250925092565b5f60208284031215610752575f80fd5b61075b826106c6565b9392505050565b5f8060408385031215610773575f80fd5b61077c836106c6565b915061078a602084016106c6565b90509250929050565b600181811c908216806107a757607f821691505b6020821081036107c557634e487b7160e01b5f52602260045260245ffd5b50919050565b8082018082111561028057634e487b7160e01b5f52601160045260245ffdfea264697066735822122092f2f6ca4a223f3e50ec73eadbe2917e2f53730c1ea5461e83c18252702f6ab664736f6c63430008140033",
  "immutableReferences": {},
  "source": "import \"./VotingToken.sol\";\r\n// SPDX-License-Identifier: MIT\r\npragma solidity ^0.8.0;\r\n\r\nimport \"@openzeppelin/contracts/token/ERC20/IERC20.sol\";\r\n// VotingToken.sol\r\ncontract VoteToken is ERC20, Ownable {\r\n    // Add constructor with required parameters\r\n    constructor(\r\n        string memory name,\r\n        string memory symbol\r\n    ) ERC20(name, symbol) Ownable(msg.sender) { // Pass msg.sender to Ownable\r\n        // Your initialization code...\r\n    }\r\n    \r\n    // Rest of your contract...\r\n}\r\ncontract VotingContract {\r\n    struct Candidate {\r\n        string name;\r\n        uint256 voteCount;\r\n    }\r\n\r\n    struct Voter {\r\n        bool hasVoted;\r\n        string votedFor;\r\n    }\r\n\r\n    address public owner;\r\n    IERC20 public immutable token;\r\n    uint256 public immutable voteCost;\r\n    mapping(address => Voter) public voters;\r\n    Candidate[] public candidates;\r\n    mapping(bytes32 => uint256) private candidateNameToIndex;\r\n    bool public votingActive;\r\n\r\n    event Voted(address indexed voter, string candidate, uint256 cost);\r\n    event VotingStarted();\r\n    event VotingEnded();\r\n\r\n    modifier onlyOwner() {\r\n        require(msg.sender == owner, \"Only owner can call this function\");\r\n        _;\r\n    }\r\n\r\n    modifier whenVotingActive() {\r\n        require(votingActive, \"Voting is not active\");\r\n        _;\r\n    }\r\n\r\n    modifier whenVotingInactive() {\r\n        require(!votingActive, \"Voting is active\");\r\n        _;\r\n    }\r\n\r\n    constructor(address _tokenAddress, uint256 _voteCost) {\r\n        owner = msg.sender;\r\n        token = IERC20(_tokenAddress);\r\n        voteCost = _voteCost;\r\n    }\r\n\r\n    function toLower(string memory _str) internal pure returns (string memory) {\r\n        bytes memory strBytes = bytes(_str);\r\n        bytes memory lowerBytes = new bytes(strBytes.length);\r\n        for (uint256 i = 0; i < strBytes.length; i++) {\r\n            if ((uint8(strBytes[i]) >= 65) && (uint8(strBytes[i]) <= 90) )\r\n            {\r\n                lowerBytes[i] = bytes1(uint8(strBytes[i]) + 32);\r\n            } else {\r\n                lowerBytes[i] = strBytes[i];\r\n            }\r\n        }\r\n        return string(lowerBytes);\r\n    }\r\n\r\n    function addCandidate(string memory _name) public onlyOwner whenVotingInactive {\r\n        string memory normalizedName = toLower(_name);\r\n        bytes32 nameHash = keccak256(bytes(normalizedName));\r\n        require(candidateNameToIndex[nameHash] == 0, \"Candidate exists\");\r\n        \r\n        candidates.push(Candidate({\r\n            name: _name,\r\n            voteCount: 0\r\n        }));\r\n        candidateNameToIndex[nameHash] = candidates.length;\r\n    }\r\n\r\n    function startVoting() public onlyOwner whenVotingInactive {\r\n        require(candidates.length > 0, \"No candidates added\");\r\n        votingActive = true;\r\n        emit VotingStarted();\r\n    }\r\n\r\n    function vote(string memory _candidateName) public whenVotingActive {\r\n        Voter storage sender = voters[msg.sender];\r\n        require(!sender.hasVoted, \"Already voted\");\r\n        \r\n        require(token.transferFrom(msg.sender, address(this), voteCost), \r\n            \"Token transfer failed\");\r\n\r\n        string memory normalizedName = toLower(_candidateName);\r\n        bytes32 nameHash = keccak256(bytes(normalizedName));\r\n        uint256 candidateIndex = candidateNameToIndex[nameHash];\r\n        require(candidateIndex != 0, \"Candidate does not exist\");\r\n\r\n        Candidate storage candidate = candidates[candidateIndex - 1];\r\n        candidate.voteCount++;\r\n        \r\n        sender.hasVoted = true;\r\n        sender.votedFor = candidate.name;\r\n        emit Voted(msg.sender, candidate.name, voteCost);\r\n    }\r\n\r\n    function endVoting() public onlyOwner whenVotingActive {\r\n        votingActive = false;\r\n        emit VotingEnded();\r\n    }\r\n\r\n    function getWinner() public view returns (string memory) {\r\n        require(!votingActive, \"Voting is active\");\r\n        require(candidates.length > 0, \"No candidates\");\r\n        \r\n        uint256 winningVoteCount = 0;\r\n        uint256 winningIndex = 0;\r\n        \r\n        for (uint256 i = 0; i < candidates.length; i++) {\r\n            if (candidates[i].voteCount > winningVoteCount) {\r\n                winningVoteCount = candidates[i].voteCount;\r\n                winningIndex = i;\r\n            }\r\n        }\r\n        \r\n        return candidates[winningIndex].name;\r\n    }\r\n\r\n    function withdrawTokens() public onlyOwner {\r\n        uint256 balance = token.balanceOf(address(this));\r\n        require(balance > 0, \"No tokens to withdraw\");\r\n        token.transfer(owner, balance);\r\n    }\r\n}",
  "sourcePath": "C:\\users\\nichlouq\\new_project\\contracts\\VotingContract.sol",
  "compiler": {
    "name": "solc",
    "version": "0.8.20+commit.a1b79de6.Emscripten.clang"
  },
  "schemaVersion": "3.4.16",
  "updatedAt": "2025-04-23T16:55:24.558Z",
  "devdoc": {
    "errors": {
      "ERC20InsufficientAllowance(address,uint256,uint256)": [
        {
          "details": "Indicates a failure with the `spender`s `allowance`. Used in transfers.",
          "params": {
            "allowance": "Amount of tokens a `spender` is allowed to operate with.",
            "needed": "Minimum amount required to perform a transfer.",
            "spender": "Address that may be allowed to operate on tokens without being their owner."
          }
        }
      ],
      "ERC20InsufficientBalance(address,uint256,uint256)": [
        {
          "details": "Indicates an error related to the current `balance` of a `sender`. Used in transfers.",
          "params": {
            "balance": "Current balance for the interacting account.",
            "needed": "Minimum amount required to perform a transfer.",
            "sender": "Address whose tokens are being transferred."
          }
        }
      ],
      "ERC20InvalidApprover(address)": [
        {
          "details": "Indicates a failure with the `approver` of a token to be approved. Used in approvals.",
          "params": {
            "approver": "Address initiating an approval operation."
          }
        }
      ],
      "ERC20InvalidReceiver(address)": [
        {
          "details": "Indicates a failure with the token `receiver`. Used in transfers.",
          "params": {
            "receiver": "Address to which tokens are being transferred."
          }
        }
      ],
      "ERC20InvalidSender(address)": [
        {
          "details": "Indicates a failure with the token `sender`. Used in transfers.",
          "params": {
            "sender": "Address whose tokens are being transferred."
          }
        }
      ],
      "ERC20InvalidSpender(address)": [
        {
          "details": "Indicates a failure with the `spender` to be approved. Used in approvals.",
          "params": {
            "spender": "Address that may be allowed to operate on tokens without being their owner."
          }
        }
      ],
      "OwnableInvalidOwner(address)": [
        {
          "details": "The owner is not a valid owner account. (eg. `address(0)`)"
        }
      ],
      "OwnableUnauthorizedAccount(address)": [
        {
          "details": "The caller account is not authorized to perform an operation."
        }
      ]
    },
    "events": {
      "Approval(address,address,uint256)": {
        "details": "Emitted when the allowance of a `spender` for an `owner` is set by a call to {approve}. `value` is the new allowance."
      },
      "Transfer(address,address,uint256)": {
        "details": "Emitted when `value` tokens are moved from one account (`from`) to another (`to`). Note that `value` may be zero."
      }
    },
    "kind": "dev",
    "methods": {
      "allowance(address,address)": {
        "details": "See {IERC20-allowance}."
      },
      "approve(address,uint256)": {
        "details": "See {IERC20-approve}. NOTE: If `value` is the maximum `uint256`, the allowance is not updated on `transferFrom`. This is semantically equivalent to an infinite approval. Requirements: - `spender` cannot be the zero address."
      },
      "balanceOf(address)": {
        "details": "See {IERC20-balanceOf}."
      },
      "decimals()": {
        "details": "Returns the number of decimals used to get its user representation. For example, if `decimals` equals `2`, a balance of `505` tokens should be displayed to a user as `5.05` (`505 / 10 ** 2`). Tokens usually opt for a value of 18, imitating the relationship between Ether and Wei. This is the default value returned by this function, unless it's overridden. NOTE: This information is only used for _display_ purposes: it in no way affects any of the arithmetic of the contract, including {IERC20-balanceOf} and {IERC20-transfer}."
      },
      "name()": {
        "details": "Returns the name of the token."
      },
      "owner()": {
        "details": "Returns the address of the current owner."
      },
      "renounceOwnership()": {
        "details": "Leaves the contract without owner. It will not be possible to call `onlyOwner` functions. Can only be called by the current owner. NOTE: Renouncing ownership will leave the contract without an owner, thereby disabling any functionality that is only available to the owner."
      },
      "symbol()": {
        "details": "Returns the symbol of the token, usually a shorter version of the name."
      },
      "totalSupply()": {
        "details": "See {IERC20-totalSupply}."
      },
      "transfer(address,uint256)": {
        "details": "See {IERC20-transfer}. Requirements: - `to` cannot be the zero address. - the caller must have a balance of at least `value`."
      },
      "transferFrom(address,address,uint256)": {
        "details": "See {IERC20-transferFrom}. Skips emitting an {Approval} event indicating an allowance update. This is not required by the ERC. See {xref-ERC20-_approve-address-address-uint256-bool-}[_approve]. NOTE: Does not update the allowance if the current allowance is the maximum `uint256`. Requirements: - `from` and `to` cannot be the zero address. - `from` must have a balance of at least `value`. - the caller must have allowance for ``from``'s tokens of at least `value`."
      },
      "transferOwnership(address)": {
        "details": "Transfers ownership of the contract to a new account (`newOwner`). Can only be called by the current owner."
      }
    },
    "version": 1
  },
  "userdoc": {
    "kind": "user",
    "methods": {},
    "version": 1
  }
}