{
  "contractName": "VotingContract",
  "abi": [
    {
      "inputs": [
        {
          "internalType": "address",
          "name": "_tokenAddress",
          "type": "address"
        },
        {
          "internalType": "uint256",
          "name": "_voteCost",
          "type": "uint256"
        }
      ],
      "stateMutability": "nonpayable",
      "type": "constructor"
    },
    {
      "anonymous": false,
      "inputs": [
        {
          "indexed": true,
          "internalType": "address",
          "name": "voter",
          "type": "address"
        },
        {
          "indexed": false,
          "internalType": "string",
          "name": "candidate",
          "type": "string"
        },
        {
          "indexed": false,
          "internalType": "uint256",
          "name": "cost",
          "type": "uint256"
        }
      ],
      "name": "Voted",
      "type": "event"
    },
    {
      "anonymous": false,
      "inputs": [],
      "name": "VotingEnded",
      "type": "event"
    },
    {
      "anonymous": false,
      "inputs": [],
      "name": "VotingStarted",
      "type": "event"
    },
    {
      "inputs": [
        {
          "internalType": "uint256",
          "name": "",
          "type": "uint256"
        }
      ],
      "name": "candidates",
      "outputs": [
        {
          "internalType": "string",
          "name": "name",
          "type": "string"
        },
        {
          "internalType": "uint256",
          "name": "voteCount",
          "type": "uint256"
        }
      ],
      "stateMutability": "view",
      "type": "function"
    },
    {
      "inputs": [],
      "name": "owner",
      "outputs": [
        {
          "internalType": "address",
          "name": "",
          "type": "address"
        }
      ],
      "stateMutability": "view",
      "type": "function"
    },
    {
      "inputs": [],
      "name": "token",
      "outputs": [
        {
          "internalType": "contract IERC20",
          "name": "",
          "type": "address"
        }
      ],
      "stateMutability": "view",
      "type": "function"
    },
    {
      "inputs": [],
      "name": "voteCost",
      "outputs": [
        {
          "internalType": "uint256",
          "name": "",
          "type": "uint256"
        }
      ],
      "stateMutability": "view",
      "type": "function"
    },
    {
      "inputs": [
        {
          "internalType": "address",
          "name": "",
          "type": "address"
        }
      ],
      "name": "voters",
      "outputs": [
        {
          "internalType": "bool",
          "name": "hasVoted",
          "type": "bool"
        },
        {
          "internalType": "string",
          "name": "votedFor",
          "type": "string"
        }
      ],
      "stateMutability": "view",
      "type": "function"
    },
    {
      "inputs": [],
      "name": "votingActive",
      "outputs": [
        {
          "internalType": "bool",
          "name": "",
          "type": "bool"
        }
      ],
      "stateMutability": "view",
      "type": "function"
    },
    {
      "inputs": [
        {
          "internalType": "string",
          "name": "_name",
          "type": "string"
        }
      ],
      "name": "addCandidate",
      "outputs": [],
      "stateMutability": "nonpayable",
      "type": "function"
    },
    {
      "inputs": [],
      "name": "startVoting",
      "outputs": [],
      "stateMutability": "nonpayable",
      "type": "function"
    },
    {
      "inputs": [
        {
          "internalType": "string",
          "name": "_candidateName",
          "type": "string"
        }
      ],
      "name": "vote",
      "outputs": [],
      "stateMutability": "nonpayable",
      "type": "function"
    },
    {
      "inputs": [],
      "name": "endVoting",
      "outputs": [],
      "stateMutability": "nonpayable",
      "type": "function"
    },
    {
      "inputs": [],
      "name": "getWinner",
      "outputs": [
        {
          "internalType": "string",
          "name": "",
          "type": "string"
        }
      ],
      "stateMutability": "view",
      "type": "function"
    },
    {
      "inputs": [],
      "name": "withdrawTokens",
      "outputs": [],
      "stateMutability": "nonpayable",
      "type": "function"
    }
  ],
  "bytecode": "0x60c060405234801561000f575f80fd5b5060405161139538038061139583398101604081905261002e91610056565b5f80546001600160a01b031916331790556001600160a01b039190911660805260a05261008d565b5f8060408385031215610067575f80fd5b82516001600160a01b038116811461007d575f80fd5b6020939093015192949293505050565b60805160a0516112c46100d15f395f818161011e015281816109c60152610ba701525f81816101c3015281816104eb015281816105cd01526109ec01526112c45ff3fe608060405234801561000f575f80fd5b50600436106100b1575f3560e01c80638da5cb5b1161006e5780638da5cb5b146101565780638e7ea5b214610180578063a3ec138d14610195578063c3403ddf146101b6578063fc0c546a146101be578063fc36e15b146101e5575f80fd5b80631ec6b60a146100b55780633477ee2e146100bf578063408e2727146100e9578063462e91ec146101065780634c1b8ffd146101195780638d8f2adb1461014e575b5f80fd5b6100bd6101f8565b005b6100d26100cd366004610d3a565b6102c9565b6040516100e0929190610d94565b60405180910390f35b6004546100f69060ff1681565b60405190151581526020016100e0565b6100bd610114366004610dc9565b61037e565b6101407f000000000000000000000000000000000000000000000000000000000000000081565b6040519081526020016100e0565b6100bd6104ab565b5f54610168906001600160a01b031681565b6040516001600160a01b0390911681526020016100e0565b61018861063d565b6040516100e09190610e74565b6101a86101a3366004610e8d565b6107c5565b6040516100e0929190610eb3565b6100bd61086c565b6101687f000000000000000000000000000000000000000000000000000000000000000081565b6100bd6101f3366004610dc9565b610912565b5f546001600160a01b0316331461022a5760405162461bcd60e51b815260040161022190610ed5565b60405180910390fd5b60045460ff161561024d5760405162461bcd60e51b815260040161022190610f16565b6002546102925760405162461bcd60e51b8152602060048201526013602482015272139bc818d85b991a59185d195cc81859191959606a1b6044820152606401610221565b6004805460ff191660011790556040517f877e2548498f42b7975a186b94ef1d32c86d420b7b806dd2be2bea293b895904905f90a1565b600281815481106102d8575f80fd5b905f5260205f2090600202015f91509050805f0180546102f790610f40565b80601f016020809104026020016040519081016040528092919081815260200182805461032390610f40565b801561036e5780601f106103455761010080835404028352916020019161036e565b820191905f5260205f20905b81548152906001019060200180831161035157829003601f168201915b5050505050908060010154905082565b5f546001600160a01b031633146103a75760405162461bcd60e51b815260040161022190610ed5565b60045460ff16156103ca5760405162461bcd60e51b815260040161022190610f16565b5f6103d482610bdc565b80516020808301919091205f818152600390925260409091205491925090156104325760405162461bcd60e51b815260206004820152601060248201526f43616e6469646174652065786973747360801b6044820152606401610221565b604080518082019091528381525f602082018190526002805460018101825591819052825191027f405787fa12a823e0f2b7631cc41b3ba8828b3321ca811111fa75cd3aa3bb5ace019081906104889082610fc6565b506020918201516001909101556002545f92835260039091526040909120555050565b5f546001600160a01b031633146104d45760405162461bcd60e51b815260040161022190610ed5565b6040516370a0823160e01b81523060048201525f907f00000000000000000000000000000000000000000000000000000000000000006001600160a01b0316906370a0823190602401602060405180830381865afa158015610538573d5f803e3d5ffd5b505050506040513d601f19601f8201168201806040525081019061055c9190611082565b90505f81116105a55760405162461bcd60e51b81526020600482015260156024820152744e6f20746f6b656e7320746f20776974686472617760581b6044820152606401610221565b5f5460405163a9059cbb60e01b81526001600160a01b039182166004820152602481018390527f00000000000000000000000000000000000000000000000000000000000000009091169063a9059cbb906044016020604051808303815f875af1158015610615573d5f803e3d5ffd5b505050506040513d601f19601f820116820180604052508101906106399190611099565b5050565b60045460609060ff16156106635760405162461bcd60e51b815260040161022190610f16565b6002546106a25760405162461bcd60e51b815260206004820152600d60248201526c4e6f2063616e6469646174657360981b6044820152606401610221565b5f805f5b6002548110156107155782600282815481106106c4576106c46110b8565b905f5260205f20906002020160010154111561070357600281815481106106ed576106ed6110b8565b905f5260205f2090600202016001015492508091505b8061070d816110e0565b9150506106a6565b5060028181548110610729576107296110b8565b905f5260205f2090600202015f01805461074290610f40565b80601f016020809104026020016040519081016040528092919081815260200182805461076e90610f40565b80156107b95780601f10610790576101008083540402835291602001916107b9565b820191905f5260205f20905b81548152906001019060200180831161079c57829003601f168201915b50505050509250505090565b600160208190525f91825260409091208054918101805460ff909316926107eb90610f40565b80601f016020809104026020016040519081016040528092919081815260200182805461081790610f40565b80156108625780601f1061083957610100808354040283529160200191610862565b820191905f5260205f20905b81548152906001019060200180831161084557829003601f168201915b5050505050905082565b5f546001600160a01b031633146108955760405162461bcd60e51b815260040161022190610ed5565b60045460ff166108de5760405162461bcd60e51b8152602060048201526014602482015273566f74696e67206973206e6f742061637469766560601b6044820152606401610221565b6004805460ff191690556040517f7a19ed057db79e3c2fa0b97a54b43bef4fce74b31bb6c01af514b9a18a7f70ab905f90a1565b60045460ff1661095b5760405162461bcd60e51b8152602060048201526014602482015273566f74696e67206973206e6f742061637469766560601b6044820152606401610221565b335f908152600160205260409020805460ff16156109ab5760405162461bcd60e51b815260206004820152600d60248201526c105b1c9958591e481d9bdd1959609a1b6044820152606401610221565b6040516323b872dd60e01b81523360048201523060248201527f000000000000000000000000000000000000000000000000000000000000000060448201527f00000000000000000000000000000000000000000000000000000000000000006001600160a01b0316906323b872dd906064016020604051808303815f875af1158015610a3a573d5f803e3d5ffd5b505050506040513d601f19601f82011682018060405250810190610a5e9190611099565b610aa25760405162461bcd60e51b8152602060048201526015602482015274151bdad95b881d1c985b9cd9995c8819985a5b1959605a1b6044820152606401610221565b5f610aac83610bdc565b80516020808301919091205f818152600390925260408220549293509190819003610b195760405162461bcd60e51b815260206004820152601860248201527f43616e64696461746520646f6573206e6f7420657869737400000000000000006044820152606401610221565b5f6002610b276001846110f8565b81548110610b3757610b376110b8565b905f5260205f2090600202019050806001015f815480929190610b59906110e0565b9091555050845460ff1916600190811786558501610b778282611111565b5060405133907f35b4034b2bbe10bb07b21969c986794a6276a531bb155886a9f883bb5c9dc8e890610bcc9084907f0000000000000000000000000000000000000000000000000000000000000000906111e6565b60405180910390a2505050505050565b60605f8290505f815167ffffffffffffffff811115610bfd57610bfd610db5565b6040519080825280601f01601f191660200182016040528015610c27576020820181803683370190505b5090505f5b8251811015610d32576041838281518110610c4957610c496110b8565b016020015160f81c10801590610c795750605a838281518110610c6e57610c6e6110b8565b016020015160f81c11155b15610cda57828181518110610c9057610c906110b8565b602001015160f81c60f81b60f81c6020610caa9190611275565b60f81b828281518110610cbf57610cbf6110b8565b60200101906001600160f81b03191690815f1a905350610d20565b828181518110610cec57610cec6110b8565b602001015160f81c60f81b828281518110610d0957610d096110b8565b60200101906001600160f81b03191690815f1a9053505b80610d2a816110e0565b915050610c2c565b509392505050565b5f60208284031215610d4a575f80fd5b5035919050565b5f81518084525f5b81811015610d7557602081850181015186830182015201610d59565b505f602082860101526020601f19601f83011685010191505092915050565b604081525f610da66040830185610d51565b90508260208301529392505050565b634e487b7160e01b5f52604160045260245ffd5b5f60208284031215610dd9575f80fd5b813567ffffffffffffffff80821115610df0575f80fd5b818401915084601f830112610e03575f80fd5b813581811115610e1557610e15610db5565b604051601f8201601f19908116603f01168101908382118183101715610e3d57610e3d610db5565b81604052828152876020848701011115610e55575f80fd5b826020860160208301375f928101602001929092525095945050505050565b602081525f610e866020830184610d51565b9392505050565b5f60208284031215610e9d575f80fd5b81356001600160a01b0381168114610e86575f80fd5b8215158152604060208201525f610ecd6040830184610d51565b949350505050565b60208082526021908201527f4f6e6c79206f776e65722063616e2063616c6c20746869732066756e6374696f6040820152603760f91b606082015260800190565b60208082526010908201526f566f74696e672069732061637469766560801b604082015260600190565b600181811c90821680610f5457607f821691505b602082108103610f7257634e487b7160e01b5f52602260045260245ffd5b50919050565b601f821115610fc1575f81815260208120601f850160051c81016020861015610f9e5750805b601f850160051c820191505b81811015610fbd57828155600101610faa565b5050505b505050565b815167ffffffffffffffff811115610fe057610fe0610db5565b610ff481610fee8454610f40565b84610f78565b602080601f831160018114611027575f84156110105750858301515b5f19600386901b1c1916600185901b178555610fbd565b5f85815260208120601f198616915b8281101561105557888601518255948401946001909101908401611036565b508582101561107257878501515f19600388901b60f8161c191681555b5050505050600190811b01905550565b5f60208284031215611092575f80fd5b5051919050565b5f602082840312156110a9575f80fd5b81518015158114610e86575f80fd5b634e487b7160e01b5f52603260045260245ffd5b634e487b7160e01b5f52601160045260245ffd5b5f600182016110f1576110f16110cc565b5060010190565b8181038181111561110b5761110b6110cc565b92915050565b81810361111c575050565b6111268254610f40565b67ffffffffffffffff81111561113e5761113e610db5565b61114c81610fee8454610f40565b5f601f82116001811461117d575f83156111665750848201545b5f19600385901b1c1916600184901b1784556111df565b5f85815260209020601f198416905f86815260209020845b838110156111b55782860154825560019586019590910190602001611195565b50858310156111d257818501545f19600388901b60f8161c191681555b50505060018360011b0184555b5050505050565b604081525f8084546111f781610f40565b806040860152606060018084165f8114611218576001811461123257611260565b60ff1985168884015283151560051b880183019550611260565b895f526020805f205f5b868110156112575781548b820187015290840190820161123c565b8a018501975050505b50505050506020929092019290925292915050565b60ff818116838216019081111561110b5761110b6110cc56fea26469706673582212204ad32f17307ba0f5dd7316423e284b89e066af2fe0063c202304b062656e46ae64736f6c63430008140033",
  "immutableReferences": {
    "973": [
      {
        "length": 32,
        "start": 451
      },
      {
        "length": 32,
        "start": 1259
      },
      {
        "length": 32,
        "start": 1485
      },
      {
        "length": 32,
        "start": 2540
      }
    ],
    "975": [
      {
        "length": 32,
        "start": 286
      },
      {
        "length": 32,
        "start": 2502
      },
      {
        "length": 32,
        "start": 2983
      }
    ]
  },
  "source": "import \"./VotingToken.sol\";\r\n// SPDX-License-Identifier: MIT\r\npragma solidity ^0.8.0;\r\n\r\nimport \"@openzeppelin/contracts/token/ERC20/IERC20.sol\";\r\n// VotingToken.sol\r\ncontract VoteToken is ERC20, Ownable {\r\n    // Add constructor with required parameters\r\n    constructor(\r\n        string memory name,\r\n        string memory symbol\r\n    ) ERC20(name, symbol) Ownable(msg.sender) { // Pass msg.sender to Ownable\r\n        // Your initialization code...\r\n    }\r\n    \r\n    // Rest of your contract...\r\n}\r\ncontract VotingContract {\r\n    struct Candidate {\r\n        string name;\r\n        uint256 voteCount;\r\n    }\r\n\r\n    struct Voter {\r\n        bool hasVoted;\r\n        string votedFor;\r\n    }\r\n\r\n    address public owner;\r\n    IERC20 public immutable token;\r\n    uint256 public immutable voteCost;\r\n    mapping(address => Voter) public voters;\r\n    Candidate[] public candidates;\r\n    mapping(bytes32 => uint256) private candidateNameToIndex;\r\n    bool public votingActive;\r\n\r\n    event Voted(address indexed voter, string candidate, uint256 cost);\r\n    event VotingStarted();\r\n    event VotingEnded();\r\n\r\n    modifier onlyOwner() {\r\n        require(msg.sender == owner, \"Only owner can call this function\");\r\n        _;\r\n    }\r\n\r\n    modifier whenVotingActive() {\r\n        require(votingActive, \"Voting is not active\");\r\n        _;\r\n    }\r\n\r\n    modifier whenVotingInactive() {\r\n        require(!votingActive, \"Voting is active\");\r\n        _;\r\n    }\r\n\r\n    constructor(address _tokenAddress, uint256 _voteCost) {\r\n        owner = msg.sender;\r\n        token = IERC20(_tokenAddress);\r\n        voteCost = _voteCost;\r\n    }\r\n\r\n    function toLower(string memory _str) internal pure returns (string memory) {\r\n        bytes memory strBytes = bytes(_str);\r\n        bytes memory lowerBytes = new bytes(strBytes.length);\r\n        for (uint256 i = 0; i < strBytes.length; i++) {\r\n            if ((uint8(strBytes[i]) >= 65) && (uint8(strBytes[i]) <= 90) )\r\n            {\r\n                lowerBytes[i] = bytes1(uint8(strBytes[i]) + 32);\r\n            } else {\r\n                lowerBytes[i] = strBytes[i];\r\n            }\r\n        }\r\n        return string(lowerBytes);\r\n    }\r\n\r\n    function addCandidate(string memory _name) public onlyOwner whenVotingInactive {\r\n        string memory normalizedName = toLower(_name);\r\n        bytes32 nameHash = keccak256(bytes(normalizedName));\r\n        require(candidateNameToIndex[nameHash] == 0, \"Candidate exists\");\r\n        \r\n        candidates.push(Candidate({\r\n            name: _name,\r\n            voteCount: 0\r\n        }));\r\n        candidateNameToIndex[nameHash] = candidates.length;\r\n    }\r\n\r\n    function startVoting() public onlyOwner whenVotingInactive {\r\n        require(candidates.length > 0, \"No candidates added\");\r\n        votingActive = true;\r\n        emit VotingStarted();\r\n    }\r\n\r\n    function vote(string memory _candidateName) public whenVotingActive {\r\n        Voter storage sender = voters[msg.sender];\r\n        require(!sender.hasVoted, \"Already voted\");\r\n        \r\n        require(token.transferFrom(msg.sender, address(this), voteCost), \r\n            \"Token transfer failed\");\r\n\r\n        string memory normalizedName = toLower(_candidateName);\r\n        bytes32 nameHash = keccak256(bytes(normalizedName));\r\n        uint256 candidateIndex = candidateNameToIndex[nameHash];\r\n        require(candidateIndex != 0, \"Candidate does not exist\");\r\n\r\n        Candidate storage candidate = candidates[candidateIndex - 1];\r\n        candidate.voteCount++;\r\n        \r\n        sender.hasVoted = true;\r\n        sender.votedFor = candidate.name;\r\n        emit Voted(msg.sender, candidate.name, voteCost);\r\n    }\r\n\r\n    function endVoting() public onlyOwner whenVotingActive {\r\n        votingActive = false;\r\n        emit VotingEnded();\r\n    }\r\n\r\n    function getWinner() public view returns (string memory) {\r\n        require(!votingActive, \"Voting is active\");\r\n        require(candidates.length > 0, \"No candidates\");\r\n        \r\n        uint256 winningVoteCount = 0;\r\n        uint256 winningIndex = 0;\r\n        \r\n        for (uint256 i = 0; i < candidates.length; i++) {\r\n            if (candidates[i].voteCount > winningVoteCount) {\r\n                winningVoteCount = candidates[i].voteCount;\r\n                winningIndex = i;\r\n            }\r\n        }\r\n        \r\n        return candidates[winningIndex].name;\r\n    }\r\n\r\n    function withdrawTokens() public onlyOwner {\r\n        uint256 balance = token.balanceOf(address(this));\r\n        require(balance > 0, \"No tokens to withdraw\");\r\n        token.transfer(owner, balance);\r\n    }\r\n}",
  "sourcePath": "C:\\users\\nichlouq\\new_project\\contracts\\VotingContract.sol",
  "compiler": {
    "name": "solc",
    "version": "0.8.20+commit.a1b79de6.Emscripten.clang"
  },
  "schemaVersion": "3.4.16",
  "updatedAt": "2025-04-23T16:55:24.567Z",
  "devdoc": {
    "kind": "dev",
    "methods": {},
    "version": 1
  },
  "userdoc": {
    "kind": "user",
    "methods": {},
    "version": 1
  }
}