{
  "contractName": "VotingToken",
  "abi": [
    {
      "inputs": [
        {
          "internalType": "string",
          "name": "name",
          "type": "string"
        },
        {
          "internalType": "string",
          "name": "symbol",
          "type": "string"
        }
      ],
      "stateMutability": "nonpayable",
      "type": "constructor"
    },
    {
      "inputs": [
        {
          "internalType": "address",
          "name": "spender",
          "type": "address"
        },
        {
          "internalType": "uint256",
          "name": "allowance",
          "type": "uint256"
        },
        {
          "internalType": "uint256",
          "name": "needed",
          "type": "uint256"
        }
      ],
      "name": "ERC20InsufficientAllowance",
      "type": "error"
    },
    {
      "inputs": [
        {
          "internalType": "address",
          "name": "sender",
          "type": "address"
        },
        {
          "internalType": "uint256",
          "name": "balance",
          "type": "uint256"
        },
        {
          "internalType": "uint256",
          "name": "needed",
          "type": "uint256"
        }
      ],
      "name": "ERC20InsufficientBalance",
      "type": "error"
    },
    {
      "inputs": [
        {
          "internalType": "address",
          "name": "approver",
          "type": "address"
        }
      ],
      "name": "ERC20InvalidApprover",
      "type": "error"
    },
    {
      "inputs": [
        {
          "internalType": "address",
          "name": "receiver",
          "type": "address"
        }
      ],
      "name": "ERC20InvalidReceiver",
      "type": "error"
    },
    {
      "inputs": [
        {
          "internalType": "address",
          "name": "sender",
          "type": "address"
        }
      ],
      "name": "ERC20InvalidSender",
      "type": "error"
    },
    {
      "inputs": [
        {
          "internalType": "address",
          "name": "spender",
          "type": "address"
        }
      ],
      "name": "ERC20InvalidSpender",
      "type": "error"
    },
    {
      "inputs": [
        {
          "internalType": "address",
          "name": "owner",
          "type": "address"
        }
      ],
      "name": "OwnableInvalidOwner",
      "type": "error"
    },
    {
      "inputs": [
        {
          "internalType": "address",
          "name": "account",
          "type": "address"
        }
      ],
      "name": "OwnableUnauthorizedAccount",
      "type": "error"
    },
    {
      "anonymous": false,
      "inputs": [
        {
          "indexed": true,
          "internalType": "address",
          "name": "owner",
          "type": "address"
        },
        {
          "indexed": true,
          "internalType": "address",
          "name": "spender",
          "type": "address"
        },
        {
          "indexed": false,
          "internalType": "uint256",
          "name": "value",
          "type": "uint256"
        }
      ],
      "name": "Approval",
      "type": "event"
    },
    {
      "anonymous": false,
      "inputs": [
        {
          "indexed": true,
          "internalType": "address",
          "name": "previousOwner",
          "type": "address"
        },
        {
          "indexed": true,
          "internalType": "address",
          "name": "newOwner",
          "type": "address"
        }
      ],
      "name": "OwnershipTransferred",
      "type": "event"
    },
    {
      "anonymous": false,
      "inputs": [
        {
          "indexed": true,
          "internalType": "address",
          "name": "from",
          "type": "address"
        },
        {
          "indexed": true,
          "internalType": "address",
          "name": "to",
          "type": "address"
        },
        {
          "indexed": false,
          "internalType": "uint256",
          "name": "value",
          "type": "uint256"
        }
      ],
      "name": "Transfer",
      "type": "event"
    },
    {
      "inputs": [
        {
          "internalType": "address",
          "name": "owner",
          "type": "address"
        },
        {
          "internalType": "address",
          "name": "spender",
          "type": "address"
        }
      ],
      "name": "allowance",
      "outputs": [
        {
          "internalType": "uint256",
          "name": "",
          "type": "uint256"
        }
      ],
      "stateMutability": "view",
      "type": "function"
    },
    {
      "inputs": [
        {
          "internalType": "address",
          "name": "spender",
          "type": "address"
        },
        {
          "internalType": "uint256",
          "name": "value",
          "type": "uint256"
        }
      ],
      "name": "approve",
      "outputs": [
        {
          "internalType": "bool",
          "name": "",
          "type": "bool"
        }
      ],
      "stateMutability": "nonpayable",
      "type": "function"
    },
    {
      "inputs": [
        {
          "internalType": "address",
          "name": "account",
          "type": "address"
        }
      ],
      "name": "balanceOf",
      "outputs": [
        {
          "internalType": "uint256",
          "name": "",
          "type": "uint256"
        }
      ],
      "stateMutability": "view",
      "type": "function"
    },
    {
      "inputs": [],
      "name": "decimals",
      "outputs": [
        {
          "internalType": "uint8",
          "name": "",
          "type": "uint8"
        }
      ],
      "stateMutability": "view",
      "type": "function"
    },
    {
      "inputs": [],
      "name": "name",
      "outputs": [
        {
          "internalType": "string",
          "name": "",
          "type": "string"
        }
      ],
      "stateMutability": "view",
      "type": "function"
    },
    {
      "inputs": [],
      "name": "owner",
      "outputs": [
        {
          "internalType": "address",
          "name": "",
          "type": "address"
        }
      ],
      "stateMutability": "view",
      "type": "function"
    },
    {
      "inputs": [],
      "name": "renounceOwnership",
      "outputs": [],
      "stateMutability": "nonpayable",
      "type": "function"
    },
    {
      "inputs": [],
      "name": "symbol",
      "outputs": [
        {
          "internalType": "string",
          "name": "",
          "type": "string"
        }
      ],
      "stateMutability": "view",
      "type": "function"
    },
    {
      "inputs": [],
      "name": "totalSupply",
      "outputs": [
        {
          "internalType": "uint256",
          "name": "",
          "type": "uint256"
        }
      ],
      "stateMutability": "view",
      "type": "function"
    },
    {
      "inputs": [
        {
          "internalType": "address",
          "name": "to",
          "type": "address"
        },
        {
          "internalType": "uint256",
          "name": "value",
          "type": "uint256"
        }
      ],
      "name": "transfer",
      "outputs": [
        {
          "internalType": "bool",
          "name": "",
          "type": "bool"
        }
      ],
      "stateMutability": "nonpayable",
      "type": "function"
    },
    {
      "inputs": [
        {
          "internalType": "address",
          "name": "from",
          "type": "address"
        },
        {
          "internalType": "address",
          "name": "to",
          "type": "address"
        },
        {
          "internalType": "uint256",
          "name": "value",
          "type": "uint256"
        }
      ],
      "name": "transferFrom",
      "outputs": [
        {
          "internalType": "bool",
          "name": "",
          "type": "bool"
        }
      ],
      "stateMutability": "nonpayable",
      "type": "function"
    },
    {
      "inputs": [
        {
          "internalType": "address",
          "name": "newOwner",
          "type": "address"
        }
      ],
      "name": "transferOwnership",
      "outputs": [],
      "stateMutability": "nonpayable",
      "type": "function"
    }
  ],
  "bytecode": "0x608060405234801562000010575f80fd5b5060405162000e7638038062000e7683398101604081905262000033916200033b565b33828260036200004483826200042d565b5060046200005382826200042d565b5050506001600160a01b0381166200008557604051631e4fbdf760e01b81525f60048201526024015b60405180910390fd5b6200009081620000c1565b50620000b933620000a46012600a62000604565b620000b390620f424062000618565b62000112565b505062000648565b600580546001600160a01b038381166001600160a01b0319831681179093556040519116919082907f8be0079c531659141344cd1fd0a4f28419497f9722a3daafe3b4186f6b6457e0905f90a35050565b6001600160a01b0382166200013d5760405163ec442f0560e01b81525f60048201526024016200007c565b6200014a5f83836200014e565b5050565b6001600160a01b0383166200017c578060025f82825462000170919062000632565b90915550620001ee9050565b6001600160a01b0383165f9081526020819052604090205481811015620001d05760405163391434e360e21b81526001600160a01b038516600482015260248101829052604481018390526064016200007c565b6001600160a01b0384165f9081526020819052604090209082900390555b6001600160a01b0382166200020c576002805482900390556200022a565b6001600160a01b0382165f9081526020819052604090208054820190555b816001600160a01b0316836001600160a01b03167fddf252ad1be2c89b69c2b068fc378daa952ba7f163c4a11628f55a4df523b3ef836040516200027091815260200190565b60405180910390a3505050565b634e487b7160e01b5f52604160045260245ffd5b5f82601f830112620002a1575f80fd5b81516001600160401b0380821115620002be57620002be6200027d565b604051601f8301601f19908116603f01168101908282118183101715620002e957620002e96200027d565b8160405283815260209250868385880101111562000305575f80fd5b5f91505b8382101562000328578582018301518183018401529082019062000309565b5f93810190920192909252949350505050565b5f80604083850312156200034d575f80fd5b82516001600160401b038082111562000364575f80fd5b620003728683870162000291565b9350602085015191508082111562000388575f80fd5b50620003978582860162000291565b9150509250929050565b600181811c90821680620003b657607f821691505b602082108103620003d557634e487b7160e01b5f52602260045260245ffd5b50919050565b601f82111562000428575f81815260208120601f850160051c81016020861015620004035750805b601f850160051c820191505b8181101562000424578281556001016200040f565b5050505b505050565b81516001600160401b038111156200044957620004496200027d565b62000461816200045a8454620003a1565b84620003db565b602080601f83116001811462000497575f84156200047f5750858301515b5f19600386901b1c1916600185901b17855562000424565b5f85815260208120601f198616915b82811015620004c757888601518255948401946001909101908401620004a6565b5085821015620004e557878501515f19600388901b60f8161c191681555b5050505050600190811b01905550565b634e487b7160e01b5f52601160045260245ffd5b600181815b808511156200054957815f19048211156200052d576200052d620004f5565b808516156200053b57918102915b93841c93908002906200050e565b509250929050565b5f826200056157506001620005fe565b816200056f57505f620005fe565b81600181146200058857600281146200059357620005b3565b6001915050620005fe565b60ff841115620005a757620005a7620004f5565b50506001821b620005fe565b5060208310610133831016604e8410600b8410161715620005d8575081810a620005fe565b620005e4838362000509565b805f1904821115620005fa57620005fa620004f5565b0290505b92915050565b5f62000611838362000551565b9392505050565b8082028115828204841417620005fe57620005fe620004f5565b80820180821115620005fe57620005fe620004f5565b61082080620006565f395ff3fe608060405234801561000f575f80fd5b50600436106100b1575f3560e01c8063715018a61161006e578063715018a6146101525780638da5cb5b1461015c57806395d89b4114610177578063a9059cbb1461017f578063dd62ed3e14610192578063f2fde38b146101ca575f80fd5b806306fdde03146100b5578063095ea7b3146100d357806318160ddd146100f657806323b872dd14610108578063313ce5671461011b57806370a082311461012a575b5f80fd5b6100bd6101dd565b6040516100ca919061067b565b60405180910390f35b6100e66100e13660046106e1565b61026d565b60405190151581526020016100ca565b6002545b6040519081526020016100ca565b6100e6610116366004610709565b610286565b604051601281526020016100ca565b6100fa610138366004610742565b6001600160a01b03165f9081526020819052604090205490565b61015a6102a9565b005b6005546040516001600160a01b0390911681526020016100ca565b6100bd6102bc565b6100e661018d3660046106e1565b6102cb565b6100fa6101a0366004610762565b6001600160a01b039182165f90815260016020908152604080832093909416825291909152205490565b61015a6101d8366004610742565b6102d8565b6060600380546101ec90610793565b80601f016020809104026020016040519081016040528092919081815260200182805461021890610793565b80156102635780601f1061023a57610100808354040283529160200191610263565b820191905f5260205f20905b81548152906001019060200180831161024657829003601f168201915b5050505050905090565b5f3361027a81858561031a565b60019150505b92915050565b5f3361029385828561032c565b61029e8585856103a8565b506001949350505050565b6102b1610405565b6102ba5f610432565b565b6060600480546101ec90610793565b5f3361027a8185856103a8565b6102e0610405565b6001600160a01b03811661030e57604051631e4fbdf760e01b81525f60048201526024015b60405180910390fd5b61031781610432565b50565b6103278383836001610483565b505050565b6001600160a01b038381165f908152600160209081526040808320938616835292905220545f198110156103a2578181101561039457604051637dc7a0d960e11b81526001600160a01b03841660048201526024810182905260448101839052606401610305565b6103a284848484035f610483565b50505050565b6001600160a01b0383166103d157604051634b637e8f60e11b81525f6004820152602401610305565b6001600160a01b0382166103fa5760405163ec442f0560e01b81525f6004820152602401610305565b610327838383610555565b6005546001600160a01b031633146102ba5760405163118cdaa760e01b8152336004820152602401610305565b600580546001600160a01b038381166001600160a01b0319831681179093556040519116919082907f8be0079c531659141344cd1fd0a4f28419497f9722a3daafe3b4186f6b6457e0905f90a35050565b6001600160a01b0384166104ac5760405163e602df0560e01b81525f6004820152602401610305565b6001600160a01b0383166104d557604051634a1406b160e11b81525f6004820152602401610305565b6001600160a01b038085165f90815260016020908152604080832093871683529290522082905580156103a257826001600160a01b0316846001600160a01b03167f8c5be1e5ebec7d5bd14f71427d1e84f3dd0314c0f7b2291e5b200ac8c7c3b9258460405161054791815260200190565b60405180910390a350505050565b6001600160a01b03831661057f578060025f82825461057491906107cb565b909155506105ef9050565b6001600160a01b0383165f90815260208190526040902054818110156105d15760405163391434e360e21b81526001600160a01b03851660048201526024810182905260448101839052606401610305565b6001600160a01b0384165f9081526020819052604090209082900390555b6001600160a01b03821661060b57600280548290039055610629565b6001600160a01b0382165f9081526020819052604090208054820190555b816001600160a01b0316836001600160a01b03167fddf252ad1be2c89b69c2b068fc378daa952ba7f163c4a11628f55a4df523b3ef8360405161066e91815260200190565b60405180910390a3505050565b5f6020808352835180828501525f5b818110156106a65785810183015185820160400152820161068a565b505f604082860101526040601f19601f8301168501019250505092915050565b80356001600160a01b03811681146106dc575f80fd5b919050565b5f80604083850312156106f2575f80fd5b6106fb836106c6565b946020939093013593505050565b5f805f6060848603121561071b575f80fd5b610724846106c6565b9250610732602085016106c6565b9150604084013590509250925092565b5f60208284031215610752575f80fd5b61075b826106c6565b9392505050565b5f8060408385031215610773575f80fd5b61077c836106c6565b915061078a602084016106c6565b90509250929050565b600181811c908216806107a757607f821691505b6020821081036107c557634e487b7160e01b5f52602260045260245ffd5b50919050565b8082018082111561028057634e487b7160e01b5f52601160045260245ffdfea26469706673582212202dfb78fbfeee1fcdba9b08b667eb4896aefd328bf175dfe553001d6b4068661564736f6c63430008140033",
  "immutableReferences": {},
  "source": "// SPDX-License-Identifier: MIT\r\npragma solidity ^0.8.0;\r\n\r\nimport \"@openzeppelin/contracts/token/ERC20/ERC20.sol\";\r\nimport \"@openzeppelin/contracts/access/Ownable.sol\";\r\n\r\ncontract VotingToken is ERC20, Ownable {\r\n    constructor(\r\n        string memory name,\r\n        string memory symbol\r\n    ) ERC20(name, symbol) Ownable(msg.sender) {\r\n        // Reduced initial supply to avoid potential overflows\r\n        _mint(msg.sender, 1_000_000 * (10 ** uint256(decimals())));\r\n    }\r\n}",
  "sourcePath": "C:\\users\\nichlouq\\new_project\\contracts\\VotingToken.sol",
  "compiler": {
    "name": "solc",
    "version": "0.8.20+commit.a1b79de6.Emscripten.clang"
  },
  "schemaVersion": "3.4.16",
  "updatedAt": "2025-04-23T16:55:24.577Z",
  "devdoc": {
    "errors": {
      "ERC20InsufficientAllowance(address,uint256,uint256)": [
        {
          "details": "Indicates a failure with the `spender`s `allowance`. Used in transfers.",
          "params": {
            "allowance": "Amount of tokens a `spender` is allowed to operate with.",
            "needed": "Minimum amount required to perform a transfer.",
            "spender": "Address that may be allowed to operate on tokens without being their owner."
          }
        }
      ],
      "ERC20InsufficientBalance(address,uint256,uint256)": [
        {
          "details": "Indicates an error related to the current `balance` of a `sender`. Used in transfers.",
          "params": {
            "balance": "Current balance for the interacting account.",
            "needed": "Minimum amount required to perform a transfer.",
            "sender": "Address whose tokens are being transferred."
          }
        }
      ],
      "ERC20InvalidApprover(address)": [
        {
          "details": "Indicates a failure with the `approver` of a token to be approved. Used in approvals.",
          "params": {
            "approver": "Address initiating an approval operation."
          }
        }
      ],
      "ERC20InvalidReceiver(address)": [
        {
          "details": "Indicates a failure with the token `receiver`. Used in transfers.",
          "params": {
            "receiver": "Address to which tokens are being transferred."
          }
        }
      ],
      "ERC20InvalidSender(address)": [
        {
          "details": "Indicates a failure with the token `sender`. Used in transfers.",
          "params": {
            "sender": "Address whose tokens are being transferred."
          }
        }
      ],
      "ERC20InvalidSpender(address)": [
        {
          "details": "Indicates a failure with the `spender` to be approved. Used in approvals.",
          "params": {
            "spender": "Address that may be allowed to operate on tokens without being their owner."
          }
        }
      ],
      "OwnableInvalidOwner(address)": [
        {
          "details": "The owner is not a valid owner account. (eg. `address(0)`)"
        }
      ],
      "OwnableUnauthorizedAccount(address)": [
        {
          "details": "The caller account is not authorized to perform an operation."
        }
      ]
    },
    "events": {
      "Approval(address,address,uint256)": {
        "details": "Emitted when the allowance of a `spender` for an `owner` is set by a call to {approve}. `value` is the new allowance."
      },
      "Transfer(address,address,uint256)": {
        "details": "Emitted when `value` tokens are moved from one account (`from`) to another (`to`). Note that `value` may be zero."
      }
    },
    "kind": "dev",
    "methods": {
      "allowance(address,address)": {
        "details": "See {IERC20-allowance}."
      },
      "approve(address,uint256)": {
        "details": "See {IERC20-approve}. NOTE: If `value` is the maximum `uint256`, the allowance is not updated on `transferFrom`. This is semantically equivalent to an infinite approval. Requirements: - `spender` cannot be the zero address."
      },
      "balanceOf(address)": {
        "details": "See {IERC20-balanceOf}."
      },
      "decimals()": {
        "details": "Returns the number of decimals used to get its user representation. For example, if `decimals` equals `2`, a balance of `505` tokens should be displayed to a user as `5.05` (`505 / 10 ** 2`). Tokens usually opt for a value of 18, imitating the relationship between Ether and Wei. This is the default value returned by this function, unless it's overridden. NOTE: This information is only used for _display_ purposes: it in no way affects any of the arithmetic of the contract, including {IERC20-balanceOf} and {IERC20-transfer}."
      },
      "name()": {
        "details": "Returns the name of the token."
      },
      "owner()": {
        "details": "Returns the address of the current owner."
      },
      "renounceOwnership()": {
        "details": "Leaves the contract without owner. It will not be possible to call `onlyOwner` functions. Can only be called by the current owner. NOTE: Renouncing ownership will leave the contract without an owner, thereby disabling any functionality that is only available to the owner."
      },
      "symbol()": {
        "details": "Returns the symbol of the token, usually a shorter version of the name."
      },
      "totalSupply()": {
        "details": "See {IERC20-totalSupply}."
      },
      "transfer(address,uint256)": {
        "details": "See {IERC20-transfer}. Requirements: - `to` cannot be the zero address. - the caller must have a balance of at least `value`."
      },
      "transferFrom(address,address,uint256)": {
        "details": "See {IERC20-transferFrom}. Skips emitting an {Approval} event indicating an allowance update. This is not required by the ERC. See {xref-ERC20-_approve-address-address-uint256-bool-}[_approve]. NOTE: Does not update the allowance if the current allowance is the maximum `uint256`. Requirements: - `from` and `to` cannot be the zero address. - `from` must have a balance of at least `value`. - the caller must have allowance for ``from``'s tokens of at least `value`."
      },
      "transferOwnership(address)": {
        "details": "Transfers ownership of the contract to a new account (`newOwner`). Can only be called by the current owner."
      }
    },
    "version": 1
  },
  "userdoc": {
    "kind": "user",
    "methods": {},
    "version": 1
  }
}